{
  "_format": "hh-sol-artifact-1",
  "contractName": "Project",
  "sourceName": "contracts/Project.sol",
  "abi": [
    {
      "inputs": [
        {
          "internalType": "address",
          "name": "_creator",
          "type": "address"
        },
        {
          "internalType": "uint256",
          "name": "_targetContribution",
          "type": "uint256"
        },
        {
          "internalType": "string",
          "name": "_projectTitle",
          "type": "string"
        },
        {
          "internalType": "string",
          "name": "_projectDes",
          "type": "string"
        }
      ],
      "stateMutability": "nonpayable",
      "type": "constructor"
    },
    {
      "anonymous": false,
      "inputs": [
        {
          "indexed": false,
          "internalType": "uint256",
          "name": "requestId",
          "type": "uint256"
        },
        {
          "indexed": false,
          "internalType": "uint256",
          "name": "amount",
          "type": "uint256"
        },
        {
          "indexed": false,
          "internalType": "address",
          "name": "recipient",
          "type": "address"
        }
      ],
      "name": "AmountWithdrawSuccessful",
      "type": "event"
    },
    {
      "anonymous": false,
      "inputs": [
        {
          "indexed": false,
          "internalType": "address",
          "name": "contributor",
          "type": "address"
        },
        {
          "indexed": false,
          "internalType": "uint256",
          "name": "amount",
          "type": "uint256"
        },
        {
          "indexed": false,
          "internalType": "uint256",
          "name": "currentTotal",
          "type": "uint256"
        }
      ],
      "name": "FundingReceived",
      "type": "event"
    },
    {
      "anonymous": false,
      "inputs": [
        {
          "indexed": false,
          "internalType": "uint256",
          "name": "requestId",
          "type": "uint256"
        },
        {
          "indexed": false,
          "internalType": "string",
          "name": "description",
          "type": "string"
        },
        {
          "indexed": false,
          "internalType": "uint256",
          "name": "amount",
          "type": "uint256"
        },
        {
          "indexed": false,
          "internalType": "address",
          "name": "recipient",
          "type": "address"
        }
      ],
      "name": "WithdrawRequestCreated",
      "type": "event"
    },
    {
      "anonymous": false,
      "inputs": [
        {
          "indexed": false,
          "internalType": "address",
          "name": "voter",
          "type": "address"
        },
        {
          "indexed": false,
          "internalType": "uint256",
          "name": "requestId",
          "type": "uint256"
        }
      ],
      "name": "WithdrawVote",
      "type": "event"
    },
    {
      "inputs": [
        {
          "internalType": "address",
          "name": "_contributor",
          "type": "address"
        }
      ],
      "name": "contribute",
      "outputs": [],
      "stateMutability": "payable",
      "type": "function"
    },
    {
      "inputs": [
        {
          "internalType": "address",
          "name": "",
          "type": "address"
        }
      ],
      "name": "contributors",
      "outputs": [
        {
          "internalType": "uint256",
          "name": "",
          "type": "uint256"
        }
      ],
      "stateMutability": "view",
      "type": "function"
    },
    {
      "inputs": [
        {
          "internalType": "string",
          "name": "_description",
          "type": "string"
        },
        {
          "internalType": "uint256",
          "name": "_amount",
          "type": "uint256"
        }
      ],
      "name": "createWithdrawRequest",
      "outputs": [],
      "stateMutability": "nonpayable",
      "type": "function"
    },
    {
      "inputs": [],
      "name": "creator",
      "outputs": [
        {
          "internalType": "address payable",
          "name": "",
          "type": "address"
        }
      ],
      "stateMutability": "view",
      "type": "function"
    },
    {
      "inputs": [],
      "name": "getContractBalance",
      "outputs": [
        {
          "internalType": "uint256",
          "name": "",
          "type": "uint256"
        }
      ],
      "stateMutability": "view",
      "type": "function"
    },
    {
      "inputs": [],
      "name": "getProjectDetails",
      "outputs": [
        {
          "internalType": "address payable",
          "name": "projectStarter",
          "type": "address"
        },
        {
          "internalType": "uint256",
          "name": "goalAmount",
          "type": "uint256"
        },
        {
          "internalType": "uint256",
          "name": "currentAmount",
          "type": "uint256"
        },
        {
          "internalType": "string",
          "name": "title",
          "type": "string"
        },
        {
          "internalType": "string",
          "name": "desc",
          "type": "string"
        },
        {
          "internalType": "enum Project.State",
          "name": "currentState",
          "type": "uint8"
        },
        {
          "internalType": "uint256",
          "name": "balance",
          "type": "uint256"
        }
      ],
      "stateMutability": "view",
      "type": "function"
    },
    {
      "inputs": [],
      "name": "noOfContributors",
      "outputs": [
        {
          "internalType": "uint256",
          "name": "",
          "type": "uint256"
        }
      ],
      "stateMutability": "view",
      "type": "function"
    },
    {
      "inputs": [],
      "name": "numOfWithdrawRequests",
      "outputs": [
        {
          "internalType": "uint256",
          "name": "",
          "type": "uint256"
        }
      ],
      "stateMutability": "view",
      "type": "function"
    },
    {
      "inputs": [],
      "name": "projectDes",
      "outputs": [
        {
          "internalType": "string",
          "name": "",
          "type": "string"
        }
      ],
      "stateMutability": "view",
      "type": "function"
    },
    {
      "inputs": [],
      "name": "projectTitle",
      "outputs": [
        {
          "internalType": "string",
          "name": "",
          "type": "string"
        }
      ],
      "stateMutability": "view",
      "type": "function"
    },
    {
      "inputs": [],
      "name": "raisedAmount",
      "outputs": [
        {
          "internalType": "uint256",
          "name": "",
          "type": "uint256"
        }
      ],
      "stateMutability": "view",
      "type": "function"
    },
    {
      "inputs": [],
      "name": "state",
      "outputs": [
        {
          "internalType": "enum Project.State",
          "name": "",
          "type": "uint8"
        }
      ],
      "stateMutability": "view",
      "type": "function"
    },
    {
      "inputs": [],
      "name": "targetContribution",
      "outputs": [
        {
          "internalType": "uint256",
          "name": "",
          "type": "uint256"
        }
      ],
      "stateMutability": "view",
      "type": "function"
    },
    {
      "inputs": [
        {
          "internalType": "uint256",
          "name": "_requestId",
          "type": "uint256"
        }
      ],
      "name": "voteWithdrawRequest",
      "outputs": [],
      "stateMutability": "nonpayable",
      "type": "function"
    },
    {
      "inputs": [
        {
          "internalType": "uint256",
          "name": "_requestId",
          "type": "uint256"
        }
      ],
      "name": "withdrawRequestedAmount",
      "outputs": [],
      "stateMutability": "nonpayable",
      "type": "function"
    },
    {
      "inputs": [
        {
          "internalType": "uint256",
          "name": "",
          "type": "uint256"
        }
      ],
      "name": "withdrawRequests",
      "outputs": [
        {
          "internalType": "string",
          "name": "description",
          "type": "string"
        },
        {
          "internalType": "uint256",
          "name": "amount",
          "type": "uint256"
        },
        {
          "internalType": "uint256",
          "name": "noOfVotes",
          "type": "uint256"
        },
        {
          "internalType": "bool",
          "name": "isCompleted",
          "type": "bool"
        },
        {
          "internalType": "address payable",
          "name": "recipient",
          "type": "address"
        }
      ],
      "stateMutability": "view",
      "type": "function"
    }
  ],
  "bytecode": "0x608060405260006002556000600660006101000a81548160ff02191690836001811115620000325762000031620000e4565b5b021790555060006009553480156200004957600080fd5b50604051620023c1380380620023c183398181016040528101906200006f919062000346565b836000806101000a81548173ffffffffffffffffffffffffffffffffffffffff021916908373ffffffffffffffffffffffffffffffffffffffff160217905550826001819055508160049081620000c7919062000637565b508060059081620000d9919062000637565b50505050506200071e565b7f4e487b7100000000000000000000000000000000000000000000000000000000600052602160045260246000fd5b6000604051905090565b600080fd5b600080fd5b600073ffffffffffffffffffffffffffffffffffffffff82169050919050565b6000620001548262000127565b9050919050565b620001668162000147565b81146200017257600080fd5b50565b60008151905062000186816200015b565b92915050565b6000819050919050565b620001a1816200018c565b8114620001ad57600080fd5b50565b600081519050620001c18162000196565b92915050565b600080fd5b600080fd5b6000601f19601f8301169050919050565b7f4e487b7100000000000000000000000000000000000000000000000000000000600052604160045260246000fd5b6200021c82620001d1565b810181811067ffffffffffffffff821117156200023e576200023d620001e2565b5b80604052505050565b60006200025362000113565b905062000261828262000211565b919050565b600067ffffffffffffffff821115620002845762000283620001e2565b5b6200028f82620001d1565b9050602081019050919050565b60005b83811015620002bc5780820151818401526020810190506200029f565b60008484015250505050565b6000620002df620002d98462000266565b62000247565b905082815260208101848484011115620002fe57620002fd620001cc565b5b6200030b8482856200029c565b509392505050565b600082601f8301126200032b576200032a620001c7565b5b81516200033d848260208601620002c8565b91505092915050565b600080600080608085870312156200036357620003626200011d565b5b6000620003738782880162000175565b94505060206200038687828801620001b0565b935050604085015167ffffffffffffffff811115620003aa57620003a962000122565b5b620003b88782880162000313565b925050606085015167ffffffffffffffff811115620003dc57620003db62000122565b5b620003ea8782880162000313565b91505092959194509250565b600081519050919050565b7f4e487b7100000000000000000000000000000000000000000000000000000000600052602260045260246000fd5b600060028204905060018216806200044957607f821691505b6020821081036200045f576200045e62000401565b5b50919050565b60008190508160005260206000209050919050565b60006020601f8301049050919050565b600082821b905092915050565b600060088302620004c97fffffffffffffffffffffffffffffffffffffffffffffffffffffffffffffffff826200048a565b620004d586836200048a565b95508019841693508086168417925050509392505050565b6000819050919050565b600062000518620005126200050c846200018c565b620004ed565b6200018c565b9050919050565b6000819050919050565b6200053483620004f7565b6200054c62000543826200051f565b84845462000497565b825550505050565b600090565b6200056362000554565b6200057081848462000529565b505050565b5b8181101562000598576200058c60008262000559565b60018101905062000576565b5050565b601f821115620005e757620005b18162000465565b620005bc846200047a565b81016020851015620005cc578190505b620005e4620005db856200047a565b83018262000575565b50505b505050565b600082821c905092915050565b60006200060c60001984600802620005ec565b1980831691505092915050565b6000620006278383620005f9565b9150826002028217905092915050565b6200064282620003f6565b67ffffffffffffffff8111156200065e576200065d620001e2565b5b6200066a825462000430565b620006778282856200059c565b600060209050601f831160018114620006af57600084156200069a578287015190505b620006a6858262000619565b86555062000716565b601f198416620006bf8662000465565b60005b82811015620006e957848901518255600182019150602085019450602081019050620006c2565b8683101562000709578489015162000705601f891682620005f9565b8355505b6001600288020188555050505b505050505050565b611c93806200072e6000396000f3fe6080604052600436106100f35760003560e01c8063752e19f91161008a578063c19d93fb11610059578063c19d93fb1461030f578063c3e20c9f1461033a578063c59ee1dc14610365578063ff3a9c7e14610390576100f3565b8063752e19f91461024f578063992a7dfb14610278578063b40141bf146102b9578063b82c86d6146102e4576100f3565b80634e695a37116100c65780634e695a37146101b65780635b6b98b9146101df5780636f9fb98a1461020857806373e888fd14610233576100f3565b806302d05d3f146100f857806303c29d58146101235780631f6d49421461014e5780634e260f6f1461018b575b600080fd5b34801561010457600080fd5b5061010d6103c1565b60405161011a9190610f6b565b60405180910390f35b34801561012f57600080fd5b506101386103e5565b6040516101459190611016565b60405180910390f35b34801561015a57600080fd5b506101756004803603810190610170919061108a565b610473565b60405161018291906110d0565b60405180910390f35b34801561019757600080fd5b506101a061048b565b6040516101ad91906110d0565b60405180910390f35b3480156101c257600080fd5b506101dd60048036038101906101d89190611117565b610491565b005b3480156101eb57600080fd5b5061020660048036038101906102019190611279565b610672565b005b34801561021457600080fd5b5061021d610813565b60405161022a91906110d0565b60405180910390f35b61024d6004803603810190610248919061108a565b61081b565b005b34801561025b57600080fd5b5061027660048036038101906102719190611117565b6109d7565b005b34801561028457600080fd5b5061029f600480360381019061029a9190611117565b610c1c565b6040516102b09594939291906112f0565b60405180910390f35b3480156102c557600080fd5b506102ce610d07565b6040516102db91906110d0565b60405180910390f35b3480156102f057600080fd5b506102f9610d0d565b60405161030691906110d0565b60405180910390f35b34801561031b57600080fd5b50610324610d13565b60405161033191906113c1565b60405180910390f35b34801561034657600080fd5b5061034f610d26565b60405161035c9190611016565b60405180910390f35b34801561037157600080fd5b5061037a610db4565b60405161038791906110d0565b60405180910390f35b34801561039c57600080fd5b506103a5610dba565b6040516103b897969594939291906113dc565b60405180910390f35b60008054906101000a900473ffffffffffffffffffffffffffffffffffffffff1681565b600580546103f290611488565b80601f016020809104026020016040519081016040528092919081815260200182805461041e90611488565b801561046b5780601f106104405761010080835404028352916020019161046b565b820191906000526020600020905b81548152906001019060200180831161044e57829003601f168201915b505050505081565b60076020528060005260406000206000915090505481565b60035481565b6000600760003373ffffffffffffffffffffffffffffffffffffffff1673ffffffffffffffffffffffffffffffffffffffff1681526020019081526020016000205411610513576040517f08c379a000000000000000000000000000000000000000000000000000000000815260040161050a90611505565b60405180910390fd5b6000600860008381526020019081526020016000209050600015158160030160003373ffffffffffffffffffffffffffffffffffffffff1673ffffffffffffffffffffffffffffffffffffffff16815260200190815260200160002060009054906101000a900460ff161515146105bf576040517f08c379a00000000000000000000000000000000000000000000000000000000081526004016105b690611571565b60405180910390fd5b60018160030160003373ffffffffffffffffffffffffffffffffffffffff1673ffffffffffffffffffffffffffffffffffffffff16815260200190815260200160002060006101000a81548160ff021916908315150217905550600181600201600082825461062e91906115c0565b925050819055507fa2925e4595bf873fa82c22a1a89809777347023bf2b502d32710157a5eb8199c3383604051610666929190611603565b60405180910390a15050565b60008054906101000a900473ffffffffffffffffffffffffffffffffffffffff1673ffffffffffffffffffffffffffffffffffffffff163373ffffffffffffffffffffffffffffffffffffffff1614610700576040517f08c379a00000000000000000000000000000000000000000000000000000000081526004016106f79061169e565b60405180910390fd5b600060086000600954815260200190815260200160002090506009600081548092919061072c906116be565b91905055508281600001908161074291906118b2565b5081816001018190555060008054906101000a900473ffffffffffffffffffffffffffffffffffffffff168160040160016101000a81548173ffffffffffffffffffffffffffffffffffffffff021916908373ffffffffffffffffffffffffffffffffffffffff1602179055507f8f1d98cb8ae39006c9203b8574cf20dfcf409ca763f70058154e7e03bacbc7b0600954848460008054906101000a900473ffffffffffffffffffffffffffffffffffffffff1660405161080694939291906119d9565b60405180910390a1505050565b600047905090565b6000600181111561082f5761082e61134a565b5b600660009054906101000a900460ff1660018111156108515761085061134a565b5b14610891576040517f08c379a000000000000000000000000000000000000000000000000000000000815260040161088890611a71565b60405180910390fd5b6000600760008373ffffffffffffffffffffffffffffffffffffffff1673ffffffffffffffffffffffffffffffffffffffff16815260200190815260200160002054036108f157600360008154809291906108eb906116be565b91905055505b34600760008373ffffffffffffffffffffffffffffffffffffffff1673ffffffffffffffffffffffffffffffffffffffff168152602001908152602001600020600082825461094091906115c0565b92505081905550346002600082825461095991906115c0565b9250508190555060015460025410610997576001600660006101000a81548160ff021916908360018111156109915761099061134a565b5b02179055505b7f5cdc4ab8d637538ead6cc1904d4160343656c8c82bd266635cfd31ac008fffe081346002546040516109cc93929190611a91565b60405180910390a150565b60008054906101000a900473ffffffffffffffffffffffffffffffffffffffff1673ffffffffffffffffffffffffffffffffffffffff163373ffffffffffffffffffffffffffffffffffffffff1614610a65576040517f08c379a0000000000000000000000000000000000000000000000000000000008152600401610a5c9061169e565b60405180910390fd5b6000600860008381526020019081526020016000209050600015158160040160009054906101000a900460ff16151514610ad4576040517f08c379a0000000000000000000000000000000000000000000000000000000008152600401610acb90611b14565b60405180910390fd5b6002600354610ae39190611b63565b81600201541015610b29576040517f08c379a0000000000000000000000000000000000000000000000000000000008152600401610b2090611c06565b60405180910390fd5b8060040160019054906101000a900473ffffffffffffffffffffffffffffffffffffffff1673ffffffffffffffffffffffffffffffffffffffff166108fc82600101549081150290604051600060405180830381858888f19350505050158015610b97573d6000803e3d6000fd5b5060018160040160006101000a81548160ff0219169083151502179055507f03bacb971b4d3ffb7dd453ff3b54c68cb149f7b8c5e667889ef5fa01857e87358282600101548360040160019054906101000a900473ffffffffffffffffffffffffffffffffffffffff16604051610c1093929190611c26565b60405180910390a15050565b6008602052806000526040600020600091509050806000018054610c3f90611488565b80601f0160208091040260200160405190810160405280929190818152602001828054610c6b90611488565b8015610cb85780601f10610c8d57610100808354040283529160200191610cb8565b820191906000526020600020905b815481529060010190602001808311610c9b57829003601f168201915b5050505050908060010154908060020154908060040160009054906101000a900460ff16908060040160019054906101000a900473ffffffffffffffffffffffffffffffffffffffff16905085565b60095481565b60015481565b600660009054906101000a900460ff1681565b60048054610d3390611488565b80601f0160208091040260200160405190810160405280929190818152602001828054610d5f90611488565b8015610dac5780601f10610d8157610100808354040283529160200191610dac565b820191906000526020600020905b815481529060010190602001808311610d8f57829003601f168201915b505050505081565b60025481565b600080600060608060008060008054906101000a900473ffffffffffffffffffffffffffffffffffffffff1696506001549550600254945060048054610dff90611488565b80601f0160208091040260200160405190810160405280929190818152602001828054610e2b90611488565b8015610e785780601f10610e4d57610100808354040283529160200191610e78565b820191906000526020600020905b815481529060010190602001808311610e5b57829003601f168201915b5050505050935060058054610e8c90611488565b80601f0160208091040260200160405190810160405280929190818152602001828054610eb890611488565b8015610f055780601f10610eda57610100808354040283529160200191610f05565b820191906000526020600020905b815481529060010190602001808311610ee857829003601f168201915b50505050509250600660009054906101000a900460ff16915047905090919293949596565b600073ffffffffffffffffffffffffffffffffffffffff82169050919050565b6000610f5582610f2a565b9050919050565b610f6581610f4a565b82525050565b6000602082019050610f806000830184610f5c565b92915050565b600081519050919050565b600082825260208201905092915050565b60005b83811015610fc0578082015181840152602081019050610fa5565b60008484015250505050565b6000601f19601f8301169050919050565b6000610fe882610f86565b610ff28185610f91565b9350611002818560208601610fa2565b61100b81610fcc565b840191505092915050565b600060208201905081810360008301526110308184610fdd565b905092915050565b6000604051905090565b600080fd5b600080fd5b600061105782610f2a565b9050919050565b6110678161104c565b811461107257600080fd5b50565b6000813590506110848161105e565b92915050565b6000602082840312156110a05761109f611042565b5b60006110ae84828501611075565b91505092915050565b6000819050919050565b6110ca816110b7565b82525050565b60006020820190506110e560008301846110c1565b92915050565b6110f4816110b7565b81146110ff57600080fd5b50565b600081359050611111816110eb565b92915050565b60006020828403121561112d5761112c611042565b5b600061113b84828501611102565b91505092915050565b600080fd5b600080fd5b7f4e487b7100000000000000000000000000000000000000000000000000000000600052604160045260246000fd5b61118682610fcc565b810181811067ffffffffffffffff821117156111a5576111a461114e565b5b80604052505050565b60006111b8611038565b90506111c4828261117d565b919050565b600067ffffffffffffffff8211156111e4576111e361114e565b5b6111ed82610fcc565b9050602081019050919050565b82818337600083830152505050565b600061121c611217846111c9565b6111ae565b90508281526020810184848401111561123857611237611149565b5b6112438482856111fa565b509392505050565b600082601f8301126112605761125f611144565b5b8135611270848260208601611209565b91505092915050565b600080604083850312156112905761128f611042565b5b600083013567ffffffffffffffff8111156112ae576112ad611047565b5b6112ba8582860161124b565b92505060206112cb85828601611102565b9150509250929050565b60008115159050919050565b6112ea816112d5565b82525050565b600060a082019050818103600083015261130a8188610fdd565b905061131960208301876110c1565b61132660408301866110c1565b61133360608301856112e1565b6113406080830184610f5c565b9695505050505050565b7f4e487b7100000000000000000000000000000000000000000000000000000000600052602160045260246000fd5b6002811061138a5761138961134a565b5b50565b600081905061139b82611379565b919050565b60006113ab8261138d565b9050919050565b6113bb816113a0565b82525050565b60006020820190506113d660008301846113b2565b92915050565b600060e0820190506113f1600083018a610f5c565b6113fe60208301896110c1565b61140b60408301886110c1565b818103606083015261141d8187610fdd565b905081810360808301526114318186610fdd565b905061144060a08301856113b2565b61144d60c08301846110c1565b98975050505050505050565b7f4e487b7100000000000000000000000000000000000000000000000000000000600052602260045260246000fd5b600060028204905060018216806114a057607f821691505b6020821081036114b3576114b2611459565b5b50919050565b7f4f6e6c7920636f6e7472696275746f72732063616e20766f7465210000000000600082015250565b60006114ef601b83610f91565b91506114fa826114b9565b602082019050919050565b6000602082019050818103600083015261151e816114e2565b9050919050565b7f596f7520616c726561647920766f746564210000000000000000000000000000600082015250565b600061155b601283610f91565b915061156682611525565b602082019050919050565b6000602082019050818103600083015261158a8161154e565b9050919050565b7f4e487b7100000000000000000000000000000000000000000000000000000000600052601160045260246000fd5b60006115cb826110b7565b91506115d6836110b7565b92508282019050808211156115ee576115ed611591565b5b92915050565b6115fd8161104c565b82525050565b600060408201905061161860008301856115f4565b61162560208301846110c1565b9392505050565b7f4f6e6c79207468652063726561746f722063616e20706572666f726d2074686960008201527f73206f7065726174696f6e210000000000000000000000000000000000000000602082015250565b6000611688602c83610f91565b91506116938261162c565b604082019050919050565b600060208201905081810360008301526116b78161167b565b9050919050565b60006116c9826110b7565b91507fffffffffffffffffffffffffffffffffffffffffffffffffffffffffffffffff82036116fb576116fa611591565b5b600182019050919050565b60008190508160005260206000209050919050565b60006020601f8301049050919050565b600082821b905092915050565b6000600883026117687fffffffffffffffffffffffffffffffffffffffffffffffffffffffffffffffff8261172b565b611772868361172b565b95508019841693508086168417925050509392505050565b6000819050919050565b60006117af6117aa6117a5846110b7565b61178a565b6110b7565b9050919050565b6000819050919050565b6117c983611794565b6117dd6117d5826117b6565b848454611738565b825550505050565b600090565b6117f26117e5565b6117fd8184846117c0565b505050565b5b81811015611821576118166000826117ea565b600181019050611803565b5050565b601f8211156118665761183781611706565b6118408461171b565b8101602085101561184f578190505b61186361185b8561171b565b830182611802565b50505b505050565b600082821c905092915050565b60006118896000198460080261186b565b1980831691505092915050565b60006118a28383611878565b9150826002028217905092915050565b6118bb82610f86565b67ffffffffffffffff8111156118d4576118d361114e565b5b6118de8254611488565b6118e9828285611825565b600060209050601f83116001811461191c576000841561190a578287015190505b6119148582611896565b86555061197c565b601f19841661192a86611706565b60005b828110156119525784890151825560018201915060208501945060208101905061192d565b8683101561196f578489015161196b601f891682611878565b8355505b6001600288020188555050505b505050505050565b600061199f61199a61199584610f2a565b61178a565b610f2a565b9050919050565b60006119b182611984565b9050919050565b60006119c3826119a6565b9050919050565b6119d3816119b8565b82525050565b60006080820190506119ee60008301876110c1565b8181036020830152611a008186610fdd565b9050611a0f60408301856110c1565b611a1c60608301846119ca565b95945050505050565b7f43616e6e6f7420636f6e74726962757465206174207468697320737461676521600082015250565b6000611a5b602083610f91565b9150611a6682611a25565b602082019050919050565b60006020820190508181036000830152611a8a81611a4e565b9050919050565b6000606082019050611aa660008301866115f4565b611ab360208301856110c1565b611ac060408301846110c1565b949350505050565b7f5265717565737420616c726561647920636f6d706c6574656400000000000000600082015250565b6000611afe601983610f91565b9150611b0982611ac8565b602082019050919050565b60006020820190508181036000830152611b2d81611af1565b9050919050565b7f4e487b7100000000000000000000000000000000000000000000000000000000600052601260045260246000fd5b6000611b6e826110b7565b9150611b79836110b7565b925082611b8957611b88611b34565b5b828204905092915050565b7f4174206c656173742035302520636f6e7472696275746f7273206e656564207460008201527f6f20766f746520666f7220746869732072657175657374000000000000000000602082015250565b6000611bf0603783610f91565b9150611bfb82611b94565b604082019050919050565b60006020820190508181036000830152611c1f81611be3565b9050919050565b6000606082019050611c3b60008301866110c1565b611c4860208301856110c1565b611c5560408301846119ca565b94935050505056fea264697066735822122038f0a03d353d79fa14ab7baa9e8c608dc88f685f0a7bbe2ec46b28ea2068061964736f6c63430008130033",
  "linkReferences": {},
  "deployedLinkReferences": {}
}